{
  "contractName": "GuessingGame",
  "abi": [
    {
      "inputs": [
        {
          "internalType": "uint256",
          "name": "_closingTime",
          "type": "uint256"
        }
      ],
      "stateMutability": "nonpayable",
      "type": "constructor"
    },
    {
      "inputs": [],
      "name": "closed",
      "outputs": [
        {
          "internalType": "bool",
          "name": "",
          "type": "bool"
        }
      ],
      "stateMutability": "view",
      "type": "function"
    },
    {
      "inputs": [],
      "name": "closingTime",
      "outputs": [
        {
          "internalType": "uint256",
          "name": "",
          "type": "uint256"
        }
      ],
      "stateMutability": "view",
      "type": "function"
    },
    {
      "inputs": [],
      "name": "numPlayers",
      "outputs": [
        {
          "internalType": "uint256",
          "name": "",
          "type": "uint256"
        }
      ],
      "stateMutability": "view",
      "type": "function"
    },
    {
      "inputs": [],
      "name": "owner",
      "outputs": [
        {
          "internalType": "address",
          "name": "",
          "type": "address"
        }
      ],
      "stateMutability": "view",
      "type": "function"
    },
    {
      "inputs": [
        {
          "internalType": "uint256",
          "name": "",
          "type": "uint256"
        }
      ],
      "name": "players",
      "outputs": [
        {
          "internalType": "uint256",
          "name": "guess",
          "type": "uint256"
        },
        {
          "internalType": "address",
          "name": "addr",
          "type": "address"
        }
      ],
      "stateMutability": "view",
      "type": "function"
    },
    {
      "inputs": [],
      "name": "pot",
      "outputs": [
        {
          "internalType": "uint256",
          "name": "",
          "type": "uint256"
        }
      ],
      "stateMutability": "view",
      "type": "function"
    },
    {
      "inputs": [
        {
          "internalType": "uint256",
          "name": "_guess",
          "type": "uint256"
        }
      ],
      "name": "guessNumber",
      "outputs": [],
      "stateMutability": "payable",
      "type": "function"
    },
    {
      "inputs": [],
      "name": "closeGame",
      "outputs": [],
      "stateMutability": "nonpayable",
      "type": "function"
    }
  ],
  "bytecode": "0x608060405234801561001057600080fd5b506040516106c23803806106c283398101604081905261002f9161005e565b600080546001600160a01b0319163317815560018190556002919091556003805460ff19169055600555610076565b60006020828403121561006f578081fd5b5051919050565b61063d806100856000396000f3fe60806040526004361061007b5760003560e01c80638da5cb5b1161004e5780638da5cb5b146100f957806397b2f5561461011b578063b438d01814610130578063f71d96cb146101435761007b565b80634b6753bc146100805780634ba2363a146100ab578063597e1fb5146100c0578063786b844b146100e2575b600080fd5b34801561008c57600080fd5b50610095610171565b6040516100a2919061057e565b60405180910390f35b3480156100b757600080fd5b50610095610177565b3480156100cc57600080fd5b506100d561017d565b6040516100a2919061045b565b3480156100ee57600080fd5b506100f7610186565b005b34801561010557600080fd5b5061010e6102f8565b6040516100a29190610447565b34801561012757600080fd5b50610095610307565b6100f761013e366004610421565b61030d565b34801561014f57600080fd5b5061016361015e366004610421565b6103ff565b6040516100a2929190610587565b60025481565b60015481565b60035460ff1681565b6000546001600160a01b031633146101b95760405162461bcd60e51b81526004016101b090610466565b60405180910390fd5b60035460ff16156101dc5760405162461bcd60e51b81526004016101b09061051a565b6002544210156101fe5760405162461bcd60e51b81526004016101b0906104ac565b6000600a4244604051602001610215929190610439565b6040516020818303038152906040528051906020012060001c61023891906105d1565b61024390600161059e565b90506000805b60055481101561029d5760008181526004602052604090205483141561028b576000818152600460205260409020600101546001600160a01b0316915061029d565b80610295816105b6565b915050610249565b506001600160a01b038116156102f4576003805460ff19166001908117909155546040516001600160a01b0383169180156108fc02916000818181858888f193505050501580156102f2573d6000803e3d6000fd5b505b5050565b6000546001600160a01b031681565b60055481565b60035460ff16156103305760405162461bcd60e51b81526004016101b09061051a565b600181101580156103425750600a8111155b61035e5760405162461bcd60e51b81526004016101b0906104e3565b662386f26fc1000034116103845760405162461bcd60e51b81526004016101b090610547565b6040805180820182528281523360208083019182526005805460009081526004909252938120925183559051600190920180546001600160a01b0319166001600160a01b0390931692909217909155815491906103e0836105b6565b919050555034600160008282546103f7919061059e565b909155505050565b600460205260009081526040902080546001909101546001600160a01b031682565b600060208284031215610432578081fd5b5035919050565b918252602082015260400190565b6001600160a01b0391909116815260200190565b901515815260200190565b60208082526026908201527f4f6e6c7920746865206f776e65722063616e2063616c6c20746869732066756e60408201526531ba34b7b71760d11b606082015260800190565b60208082526017908201527f47616d65206973206e6f742079657420636c6f7365642e000000000000000000604082015260600190565b6020808252601f908201527f4775657373206d757374206265206265747765656e203120616e642031302e00604082015260600190565b6020808252601390820152722a34329033b0b6b29034b99031b637b9b2b21760691b604082015260600190565b6020808252601a908201527f4d696e696d756d2062657420697320302e30312065746865722e000000000000604082015260600190565b90815260200190565b9182526001600160a01b0316602082015260400190565b600082198211156105b1576105b16105f1565b500190565b60006000198214156105ca576105ca6105f1565b5060010190565b6000826105ec57634e487b7160e01b81526012600452602481fd5b500690565b634e487b7160e01b600052601160045260246000fdfea2646970667358221220a169fb4c7785a8329dad27b4b16ac4d40c2a96ddac0a839bf7dd850d1993a5e364736f6c63430008000033",
  "immutableReferences": {},
  "source": "// SPDX-License-Identifier: MIT\r\npragma solidity ^0.8.0;\r\n\r\ncontract GuessingGame {\r\n    address public owner;\r\n    uint256 public pot;\r\n    uint256 public closingTime;\r\n    bool public closed;\r\n\r\n    struct Player {\r\n        uint256 guess;\r\n        address addr;\r\n    }\r\n\r\n    mapping(uint256 => Player) public players;\r\n    uint256 public numPlayers;\r\n\r\n    modifier onlyOwner() {\r\n        require(msg.sender == owner, \"Only the owner can call this function.\");\r\n        _;\r\n    }\r\n\r\n    modifier notClosed() {\r\n        require(!closed, \"The game is closed.\");\r\n        _;\r\n    }\r\n\r\n    constructor(uint256 _closingTime) {\r\n        owner = msg.sender;\r\n        pot = 0;\r\n        closingTime = _closingTime;\r\n        closed = false;\r\n        numPlayers = 0;\r\n    }\r\n\r\n    function guessNumber(uint256 _guess) public payable notClosed {\r\n        require(_guess >= 1 && _guess <= 10, \"Guess must be between 1 and 10.\");\r\n        require(msg.value > 0.01 ether, \"Minimum bet is 0.01 ether.\");\r\n\r\n        players[numPlayers] = Player(_guess, msg.sender);\r\n        numPlayers++;\r\n        pot += msg.value;\r\n    }\r\n\r\n    function closeGame() public onlyOwner notClosed {\r\n        require(block.timestamp >= closingTime, \"Game is not yet closed.\");\r\n\r\n        uint256 winningNumber = uint256(keccak256(abi.encodePacked(block.timestamp, block.difficulty))) % 10 + 1;\r\n        address winner;\r\n\r\n        for (uint256 i = 0; i < numPlayers; i++) {\r\n            if (players[i].guess == winningNumber) {\r\n                winner = players[i].addr;\r\n                break;\r\n            }\r\n        }\r\n\r\n        if (winner != address(0)) {\r\n            closed = true;\r\n            payable(winner).transfer(pot);\r\n        }\r\n    }\r\n}\r\n",
  "sourcePath": "E:\\truffle\\GuessingGame\\contracts\\GuessingGame.sol",
  "compiler": {
    "name": "solc",
    "version": "0.8.0+commit.c7dfd78e.Emscripten.clang"
  },
  "schemaVersion": "3.4.14",
  "updatedAt": "2023-08-04T16:41:49.926Z",
  "devdoc": {
    "kind": "dev",
    "methods": {},
    "version": 1
  },
  "userdoc": {
    "kind": "user",
    "methods": {},
    "version": 1
  }
}